{
  "_format": "hh-sol-artifact-1",
  "contractName": "ShipmentManager",
  "sourceName": "contracts/ShipmentManager.sol",
  "abi": [
    {
      "anonymous": false,
      "inputs": [
        {
          "indexed": false,
          "internalType": "string",
          "name": "shipmentId",
          "type": "string"
        },
        {
          "indexed": false,
          "internalType": "enum ShipmentManager.ShipmentStage",
          "name": "newStage",
          "type": "uint8"
        },
        {
          "indexed": false,
          "internalType": "address",
          "name": "updatedBy",
          "type": "address"
        }
      ],
      "name": "ShipmentUpdated",
      "type": "event"
    },
    {
      "inputs": [
        {
          "internalType": "string",
          "name": "_shipmentId",
          "type": "string"
        }
      ],
      "name": "advanceStage",
      "outputs": [],
      "stateMutability": "nonpayable",
      "type": "function"
    },
    {
      "inputs": [
        {
          "internalType": "string",
          "name": "_shipmentId",
          "type": "string"
        }
      ],
      "name": "createShipment",
      "outputs": [],
      "stateMutability": "nonpayable",
      "type": "function"
    },
    {
      "inputs": [
        {
          "internalType": "string",
          "name": "_shipmentId",
          "type": "string"
        }
      ],
      "name": "getShipmentStage",
      "outputs": [
        {
          "internalType": "enum ShipmentManager.ShipmentStage",
          "name": "",
          "type": "uint8"
        }
      ],
      "stateMutability": "view",
      "type": "function"
    },
    {
      "inputs": [
        {
          "internalType": "string",
          "name": "",
          "type": "string"
        }
      ],
      "name": "shipments",
      "outputs": [
        {
          "internalType": "string",
          "name": "shipmentId",
          "type": "string"
        },
        {
          "internalType": "address",
          "name": "owner",
          "type": "address"
        },
        {
          "internalType": "enum ShipmentManager.ShipmentStage",
          "name": "stage",
          "type": "uint8"
        }
      ],
      "stateMutability": "view",
      "type": "function"
    }
  ],
  "bytecode": "0x6080604052348015600f57600080fd5b50610fe68061001f6000396000f3fe608060405234801561001057600080fd5b506004361061004c5760003560e01c80635ceaef5b1461005157806370815e8514610083578063960f49e51461009f578063e3a03ef4146100cf575b600080fd5b61006b6004803603810190610066919061084b565b6100eb565b60405161007a939291906109cb565b60405180910390f35b61009d6004803603810190610098919061084b565b6101e0565b005b6100b960048036038101906100b4919061084b565b6103e5565b6040516100c69190610a09565b60405180910390f35b6100e960048036038101906100e4919061084b565b6104cc565b005b60008180516020810182018051848252602083016020850120818352809550505050505060009150905080600001805461012490610a53565b80601f016020809104026020016040519081016040528092919081815260200182805461015090610a53565b801561019d5780601f106101725761010080835404028352916020019161019d565b820191906000526020600020905b81548152906001019060200180831161018057829003601f168201915b5050505050908060010160009054906101000a900473ffffffffffffffffffffffffffffffffffffffff16908060010160149054906101000a900460ff16905083565b600073ffffffffffffffffffffffffffffffffffffffff166000826040516102089190610ac0565b908152602001604051809103902060010160009054906101000a900473ffffffffffffffffffffffffffffffffffffffff1673ffffffffffffffffffffffffffffffffffffffff1603610290576040517f08c379a000000000000000000000000000000000000000000000000000000000815260040161028790610b23565b60405180910390fd5b600080826040516102a19190610ac0565b908152602001604051809103902090506003808111156102c4576102c3610954565b5b8160010160149054906101000a900460ff1660038111156102e8576102e7610954565b5b03610328576040517f08c379a000000000000000000000000000000000000000000000000000000000815260040161031f90610b8f565b60405180910390fd5b60018160010160149054906101000a900460ff16600381111561034e5761034d610954565b5b6103589190610be8565b600381111561036a57610369610954565b5b8160010160146101000a81548160ff021916908360038111156103905761038f610954565b5b02179055507fb7d974461aafb3b475f793adeb42ae633cdf869dcffeb8d515b940a67d6f0b3b828260010160149054906101000a900460ff16336040516103d993929190610c1c565b60405180910390a15050565b60008073ffffffffffffffffffffffffffffffffffffffff1660008360405161040e9190610ac0565b908152602001604051809103902060010160009054906101000a900473ffffffffffffffffffffffffffffffffffffffff1673ffffffffffffffffffffffffffffffffffffffff1603610496576040517f08c379a000000000000000000000000000000000000000000000000000000000815260040161048d90610b23565b60405180910390fd5b6000826040516104a69190610ac0565b908152602001604051809103902060010160149054906101000a900460ff169050919050565b6000815111610510576040517f08c379a000000000000000000000000000000000000000000000000000000000815260040161050790610ca6565b60405180910390fd5b600073ffffffffffffffffffffffffffffffffffffffff166000826040516105389190610ac0565b908152602001604051809103902060010160009054906101000a900473ffffffffffffffffffffffffffffffffffffffff1673ffffffffffffffffffffffffffffffffffffffff16146105c0576040517f08c379a00000000000000000000000000000000000000000000000000000000081526004016105b790610d12565b60405180910390fd5b60405180606001604052808281526020013373ffffffffffffffffffffffffffffffffffffffff1681526020016000600381111561060157610600610954565b5b8152506000826040516106149190610ac0565b908152602001604051809103902060008201518160000190816106379190610ede565b5060208201518160010160006101000a81548173ffffffffffffffffffffffffffffffffffffffff021916908373ffffffffffffffffffffffffffffffffffffffff16021790555060408201518160010160146101000a81548160ff021916908360038111156106aa576106a9610954565b5b02179055509050507fb7d974461aafb3b475f793adeb42ae633cdf869dcffeb8d515b940a67d6f0b3b816000336040516106e693929190610c1c565b60405180910390a150565b6000604051905090565b600080fd5b600080fd5b600080fd5b600080fd5b6000601f19601f8301169050919050565b7f4e487b7100000000000000000000000000000000000000000000000000000000600052604160045260246000fd5b6107588261070f565b810181811067ffffffffffffffff8211171561077757610776610720565b5b80604052505050565b600061078a6106f1565b9050610796828261074f565b919050565b600067ffffffffffffffff8211156107b6576107b5610720565b5b6107bf8261070f565b9050602081019050919050565b82818337600083830152505050565b60006107ee6107e98461079b565b610780565b90508281526020810184848401111561080a5761080961070a565b5b6108158482856107cc565b509392505050565b600082601f83011261083257610831610705565b5b81356108428482602086016107db565b91505092915050565b600060208284031215610861576108606106fb565b5b600082013567ffffffffffffffff81111561087f5761087e610700565b5b61088b8482850161081d565b91505092915050565b600081519050919050565b600082825260208201905092915050565b60005b838110156108ce5780820151818401526020810190506108b3565b60008484015250505050565b60006108e582610894565b6108ef818561089f565b93506108ff8185602086016108b0565b6109088161070f565b840191505092915050565b600073ffffffffffffffffffffffffffffffffffffffff82169050919050565b600061093e82610913565b9050919050565b61094e81610933565b82525050565b7f4e487b7100000000000000000000000000000000000000000000000000000000600052602160045260246000fd5b6004811061099457610993610954565b5b50565b60008190506109a582610983565b919050565b60006109b582610997565b9050919050565b6109c5816109aa565b82525050565b600060608201905081810360008301526109e581866108da565b90506109f46020830185610945565b610a0160408301846109bc565b949350505050565b6000602082019050610a1e60008301846109bc565b92915050565b7f4e487b7100000000000000000000000000000000000000000000000000000000600052602260045260246000fd5b60006002820490506001821680610a6b57607f821691505b602082108103610a7e57610a7d610a24565b5b50919050565b600081905092915050565b6000610a9a82610894565b610aa48185610a84565b9350610ab48185602086016108b0565b80840191505092915050565b6000610acc8284610a8f565b915081905092915050565b7f536869706d656e7420646f6573206e6f74206578697374000000000000000000600082015250565b6000610b0d60178361089f565b9150610b1882610ad7565b602082019050919050565b60006020820190508181036000830152610b3c81610b00565b9050919050565b7f536869706d656e7420616c72656164792064656c697665726564000000000000600082015250565b6000610b79601a8361089f565b9150610b8482610b43565b602082019050919050565b60006020820190508181036000830152610ba881610b6c565b9050919050565b6000819050919050565b7f4e487b7100000000000000000000000000000000000000000000000000000000600052601160045260246000fd5b6000610bf382610baf565b9150610bfe83610baf565b9250828201905080821115610c1657610c15610bb9565b5b92915050565b60006060820190508181036000830152610c3681866108da565b9050610c4560208301856109bc565b610c526040830184610945565b949350505050565b7f536869706d656e74204944207265717569726564000000000000000000000000600082015250565b6000610c9060148361089f565b9150610c9b82610c5a565b602082019050919050565b60006020820190508181036000830152610cbf81610c83565b9050919050565b7f536869706d656e7420616c726561647920657869737473000000000000000000600082015250565b6000610cfc60178361089f565b9150610d0782610cc6565b602082019050919050565b60006020820190508181036000830152610d2b81610cef565b9050919050565b60008190508160005260206000209050919050565b60006020601f8301049050919050565b600082821b905092915050565b600060088302610d947fffffffffffffffffffffffffffffffffffffffffffffffffffffffffffffffff82610d57565b610d9e8683610d57565b95508019841693508086168417925050509392505050565b6000819050919050565b6000610ddb610dd6610dd184610baf565b610db6565b610baf565b9050919050565b6000819050919050565b610df583610dc0565b610e09610e0182610de2565b848454610d64565b825550505050565b600090565b610e1e610e11565b610e29818484610dec565b505050565b5b81811015610e4d57610e42600082610e16565b600181019050610e2f565b5050565b601f821115610e9257610e6381610d32565b610e6c84610d47565b81016020851015610e7b578190505b610e8f610e8785610d47565b830182610e2e565b50505b505050565b600082821c905092915050565b6000610eb560001984600802610e97565b1980831691505092915050565b6000610ece8383610ea4565b9150826002028217905092915050565b610ee782610894565b67ffffffffffffffff811115610f0057610eff610720565b5b610f0a8254610a53565b610f15828285610e51565b600060209050601f831160018114610f485760008415610f36578287015190505b610f408582610ec2565b865550610fa8565b601f198416610f5686610d32565b60005b82811015610f7e57848901518255600182019150602085019450602081019050610f59565b86831015610f9b5784890151610f97601f891682610ea4565b8355505b6001600288020188555050505b50505050505056fea2646970667358221220acd000578f1572285adc131241f3e377c914d4931b2e79c58c0df3ca15308bb764736f6c634300081c0033",
  "linkReferences": {},
  "deployedLinkReferences": {}
}