{
  "_format": "hh-sol-artifact-1",
  "contractName": "ShipmentManager",
  "sourceName": "contracts/ShipmentManager.sol",
  "abi": [
    {
      "inputs": [],
      "stateMutability": "nonpayable",
      "type": "constructor"
    },
    {
      "inputs": [],
      "name": "AccessControlBadConfirmation",
      "type": "error"
    },
    {
      "inputs": [
        {
          "internalType": "address",
          "name": "account",
          "type": "address"
        },
        {
          "internalType": "bytes32",
          "name": "neededRole",
          "type": "bytes32"
        }
      ],
      "name": "AccessControlUnauthorizedAccount",
      "type": "error"
    },
    {
      "anonymous": false,
      "inputs": [
        {
          "indexed": false,
          "internalType": "string",
          "name": "shipmentId",
          "type": "string"
        },
        {
          "indexed": false,
          "internalType": "address",
          "name": "uploadedBy",
          "type": "address"
        }
      ],
      "name": "DocumentUploaded",
      "type": "event"
    },
    {
      "anonymous": false,
      "inputs": [
        {
          "indexed": true,
          "internalType": "bytes32",
          "name": "role",
          "type": "bytes32"
        },
        {
          "indexed": true,
          "internalType": "bytes32",
          "name": "previousAdminRole",
          "type": "bytes32"
        },
        {
          "indexed": true,
          "internalType": "bytes32",
          "name": "newAdminRole",
          "type": "bytes32"
        }
      ],
      "name": "RoleAdminChanged",
      "type": "event"
    },
    {
      "anonymous": false,
      "inputs": [
        {
          "indexed": true,
          "internalType": "bytes32",
          "name": "role",
          "type": "bytes32"
        },
        {
          "indexed": true,
          "internalType": "address",
          "name": "account",
          "type": "address"
        },
        {
          "indexed": true,
          "internalType": "address",
          "name": "sender",
          "type": "address"
        }
      ],
      "name": "RoleGranted",
      "type": "event"
    },
    {
      "anonymous": false,
      "inputs": [
        {
          "indexed": true,
          "internalType": "bytes32",
          "name": "role",
          "type": "bytes32"
        },
        {
          "indexed": true,
          "internalType": "address",
          "name": "account",
          "type": "address"
        },
        {
          "indexed": true,
          "internalType": "address",
          "name": "sender",
          "type": "address"
        }
      ],
      "name": "RoleRevoked",
      "type": "event"
    },
    {
      "anonymous": false,
      "inputs": [
        {
          "indexed": false,
          "internalType": "string",
          "name": "shipmentId",
          "type": "string"
        },
        {
          "indexed": false,
          "internalType": "address",
          "name": "createdBy",
          "type": "address"
        }
      ],
      "name": "ShipmentCreated",
      "type": "event"
    },
    {
      "anonymous": false,
      "inputs": [
        {
          "indexed": false,
          "internalType": "string",
          "name": "shipmentId",
          "type": "string"
        },
        {
          "indexed": false,
          "internalType": "enum ShipmentManager.ShipmentStage",
          "name": "newStage",
          "type": "uint8"
        },
        {
          "indexed": false,
          "internalType": "address",
          "name": "approvedBy",
          "type": "address"
        }
      ],
      "name": "StageApproved",
      "type": "event"
    },
    {
      "inputs": [],
      "name": "ADMIN_ROLE",
      "outputs": [
        {
          "internalType": "bytes32",
          "name": "",
          "type": "bytes32"
        }
      ],
      "stateMutability": "view",
      "type": "function"
    },
    {
      "inputs": [],
      "name": "DEFAULT_ADMIN_ROLE",
      "outputs": [
        {
          "internalType": "bytes32",
          "name": "",
          "type": "bytes32"
        }
      ],
      "stateMutability": "view",
      "type": "function"
    },
    {
      "inputs": [],
      "name": "INFO_PROVIDER_ROLE",
      "outputs": [
        {
          "internalType": "bytes32",
          "name": "",
          "type": "bytes32"
        }
      ],
      "stateMutability": "view",
      "type": "function"
    },
    {
      "inputs": [],
      "name": "SIGNER_ROLE",
      "outputs": [
        {
          "internalType": "bytes32",
          "name": "",
          "type": "bytes32"
        }
      ],
      "stateMutability": "view",
      "type": "function"
    },
    {
      "inputs": [
        {
          "internalType": "string",
          "name": "_shipmentId",
          "type": "string"
        }
      ],
      "name": "approveStage",
      "outputs": [],
      "stateMutability": "nonpayable",
      "type": "function"
    },
    {
      "inputs": [
        {
          "internalType": "string",
          "name": "_shipmentId",
          "type": "string"
        },
        {
          "internalType": "address[]",
          "name": "_signers",
          "type": "address[]"
        },
        {
          "internalType": "address[]",
          "name": "_infoProviders",
          "type": "address[]"
        }
      ],
      "name": "createShipment",
      "outputs": [],
      "stateMutability": "nonpayable",
      "type": "function"
    },
    {
      "inputs": [
        {
          "internalType": "bytes32",
          "name": "role",
          "type": "bytes32"
        }
      ],
      "name": "getRoleAdmin",
      "outputs": [
        {
          "internalType": "bytes32",
          "name": "",
          "type": "bytes32"
        }
      ],
      "stateMutability": "view",
      "type": "function"
    },
    {
      "inputs": [
        {
          "internalType": "string",
          "name": "_shipmentId",
          "type": "string"
        }
      ],
      "name": "getShipmentStage",
      "outputs": [
        {
          "internalType": "enum ShipmentManager.ShipmentStage",
          "name": "",
          "type": "uint8"
        }
      ],
      "stateMutability": "view",
      "type": "function"
    },
    {
      "inputs": [
        {
          "internalType": "bytes32",
          "name": "role",
          "type": "bytes32"
        },
        {
          "internalType": "address",
          "name": "account",
          "type": "address"
        }
      ],
      "name": "grantRole",
      "outputs": [],
      "stateMutability": "nonpayable",
      "type": "function"
    },
    {
      "inputs": [
        {
          "internalType": "bytes32",
          "name": "role",
          "type": "bytes32"
        },
        {
          "internalType": "address",
          "name": "account",
          "type": "address"
        }
      ],
      "name": "hasRole",
      "outputs": [
        {
          "internalType": "bool",
          "name": "",
          "type": "bool"
        }
      ],
      "stateMutability": "view",
      "type": "function"
    },
    {
      "inputs": [
        {
          "internalType": "bytes32",
          "name": "role",
          "type": "bytes32"
        },
        {
          "internalType": "address",
          "name": "callerConfirmation",
          "type": "address"
        }
      ],
      "name": "renounceRole",
      "outputs": [],
      "stateMutability": "nonpayable",
      "type": "function"
    },
    {
      "inputs": [
        {
          "internalType": "bytes32",
          "name": "role",
          "type": "bytes32"
        },
        {
          "internalType": "address",
          "name": "account",
          "type": "address"
        }
      ],
      "name": "revokeRole",
      "outputs": [],
      "stateMutability": "nonpayable",
      "type": "function"
    },
    {
      "inputs": [
        {
          "internalType": "bytes4",
          "name": "interfaceId",
          "type": "bytes4"
        }
      ],
      "name": "supportsInterface",
      "outputs": [
        {
          "internalType": "bool",
          "name": "",
          "type": "bool"
        }
      ],
      "stateMutability": "view",
      "type": "function"
    },
    {
      "inputs": [
        {
          "internalType": "string",
          "name": "_shipmentId",
          "type": "string"
        }
      ],
      "name": "uploadDocument",
      "outputs": [],
      "stateMutability": "nonpayable",
      "type": "function"
    }
  ],
  "bytecode": "0x608060405234801561001057600080fd5b506100246000801b3361005b60201b60201c565b506100557fa49807205ce4d355092ef5a8a18f56e8913cf4a201fbe287825b095693c217753361005b60201b60201c565b506101ca565b600061006d838361015860201b60201c565b61014d57600160008085815260200190815260200160002060000160008473ffffffffffffffffffffffffffffffffffffffff1673ffffffffffffffffffffffffffffffffffffffff16815260200190815260200160002060006101000a81548160ff0219169083151502179055506100ea6101c260201b60201c565b73ffffffffffffffffffffffffffffffffffffffff168273ffffffffffffffffffffffffffffffffffffffff16847f2f8788117e7eff1d82e926ec794901d17c78024a50270940304540a733656f0d60405160405180910390a460019050610152565b600090505b92915050565b600080600084815260200190815260200160002060000160008373ffffffffffffffffffffffffffffffffffffffff1673ffffffffffffffffffffffffffffffffffffffff16815260200190815260200160002060009054906101000a900460ff16905092915050565b600033905090565b611d59806101d96000396000f3fe608060405234801561001057600080fd5b50600436106100ea5760003560e01c806391d148541161008c578063a217fddf11610066578063a217fddf1461025b578063ab54aef014610279578063b7f5576d14610297578063d547741f146102b3576100ea565b806391d14854146101dd578063960f49e51461020d578063a1ebf35d1461023d576100ea565b806336568abe116100c857806336568abe1461016b578063413ad8101461018757806353f77bc6146101a357806375b238fc146101bf576100ea565b806301ffc9a7146100ef578063248a9ca31461011f5780632f2ff15d1461014f575b600080fd5b6101096004803603810190610104919061111b565b6102cf565b6040516101169190611163565b60405180910390f35b610139600480360381019061013491906111b4565b610349565b60405161014691906111f0565b60405180910390f35b61016960048036038101906101649190611269565b610368565b005b61018560048036038101906101809190611269565b61038a565b005b6101a1600480360381019061019c91906114b7565b610405565b005b6101bd60048036038101906101b8919061155e565b6107c7565b005b6101c7610af8565b6040516101d491906111f0565b60405180910390f35b6101f760048036038101906101f29190611269565b610b1c565b6040516102049190611163565b60405180910390f35b6102276004803603810190610222919061155e565b610b86565b604051610234919061161e565b60405180910390f35b610245610c6d565b60405161025291906111f0565b60405180910390f35b610263610c91565b60405161027091906111f0565b60405180910390f35b610281610c98565b60405161028e91906111f0565b60405180910390f35b6102b160048036038101906102ac919061155e565b610cbc565b005b6102cd60048036038101906102c89190611269565b610dd3565b005b60007f7965db0b000000000000000000000000000000000000000000000000000000007bffffffffffffffffffffffffffffffffffffffffffffffffffffffff1916827bffffffffffffffffffffffffffffffffffffffffffffffffffffffff19161480610342575061034182610df5565b5b9050919050565b6000806000838152602001908152602001600020600101549050919050565b61037182610349565b61037a81610e5f565b6103848383610e73565b50505050565b610392610f64565b73ffffffffffffffffffffffffffffffffffffffff168173ffffffffffffffffffffffffffffffffffffffff16146103f6576040517f6697b23200000000000000000000000000000000000000000000000000000000815260040160405180910390fd5b6104008282610f6c565b505050565b7fa49807205ce4d355092ef5a8a18f56e8913cf4a201fbe287825b095693c2177561042f81610e5f565b600073ffffffffffffffffffffffffffffffffffffffff1660018560405161045791906116aa565b908152602001604051809103902060010160009054906101000a900473ffffffffffffffffffffffffffffffffffffffff1673ffffffffffffffffffffffffffffffffffffffff16146104df576040517f08c379a00000000000000000000000000000000000000000000000000000000081526004016104d69061171e565b60405180910390fd5b60006001856040516104f191906116aa565b90815260200160405180910390209050848160000190816105129190611954565b50338160010160006101000a81548173ffffffffffffffffffffffffffffffffffffffff021916908373ffffffffffffffffffffffffffffffffffffffff16021790555060008160010160146101000a81548160ff0219169083600381111561057e5761057d6115a7565b5b0217905550835181600401819055506000816005018190555060005b845181101561068e576105e77fe2f4eaae4a9751e85a3e4a7b9587827a877f29914755229b07a7b2da98285f708683815181106105da576105d9611a26565b5b6020026020010151610e73565b506002866040516105f891906116aa565b908152602001604051809103902085828151811061061957610618611a26565b5b60200260200101519080600181540180825580915050600190039060005260206000200160009091909190916101000a81548173ffffffffffffffffffffffffffffffffffffffff021916908373ffffffffffffffffffffffffffffffffffffffff160217905550808060010191505061059a565b5060005b8351811015610786576106df7f7c99c4ccc04b45f4167a78ffd832968611bab1239c4b4e2f858140ed8c38e4238583815181106106d2576106d1611a26565b5b6020026020010151610e73565b506003866040516106f091906116aa565b908152602001604051809103902084828151811061071157610710611a26565b5b60200260200101519080600181540180825580915050600190039060005260206000200160009091909190916101000a81548173ffffffffffffffffffffffffffffffffffffffff021916908373ffffffffffffffffffffffffffffffffffffffff1602179055508080600101915050610692565b507f45d116fa2d81f0784fa8c724f0e51976f4fe3e15db525481c38f078ebf57239885336040516107b8929190611a9d565b60405180910390a15050505050565b7fe2f4eaae4a9751e85a3e4a7b9587827a877f29914755229b07a7b2da98285f706107f181610e5f565b600060018360405161080391906116aa565b90815260200160405180910390209050600073ffffffffffffffffffffffffffffffffffffffff168160010160009054906101000a900473ffffffffffffffffffffffffffffffffffffffff1673ffffffffffffffffffffffffffffffffffffffff16036108a6576040517f08c379a000000000000000000000000000000000000000000000000000000000815260040161089d90611b19565b60405180910390fd5b8060030160003373ffffffffffffffffffffffffffffffffffffffff1673ffffffffffffffffffffffffffffffffffffffff16815260200190815260200160002060009054906101000a900460ff1615610935576040517f08c379a000000000000000000000000000000000000000000000000000000000815260040161092c90611b85565b60405180910390fd5b60018160030160003373ffffffffffffffffffffffffffffffffffffffff1673ffffffffffffffffffffffffffffffffffffffff16815260200190815260200160002060006101000a81548160ff0219169083151502179055508060050160008154809291906109a490611bd4565b91905055508060040154816005015403610af3576003808111156109cb576109ca6115a7565b5b8160010160149054906101000a900460ff1660038111156109ef576109ee6115a7565b5b03610a2f576040517f08c379a0000000000000000000000000000000000000000000000000000000008152600401610a2690611c68565b60405180910390fd5b60018160010160149054906101000a900460ff166003811115610a5557610a546115a7565b5b610a5f9190611c88565b6003811115610a7157610a706115a7565b5b8160010160146101000a81548160ff02191690836003811115610a9757610a966115a7565b5b0217905550600081600501819055507f63631d25d908bdae19afdfb6d000470cc3ebe7296cec4d692df322d0b8b34b5c838260010160149054906101000a900460ff1633604051610aea93929190611cbc565b60405180910390a15b505050565b7fa49807205ce4d355092ef5a8a18f56e8913cf4a201fbe287825b095693c2177581565b600080600084815260200190815260200160002060000160008373ffffffffffffffffffffffffffffffffffffffff1673ffffffffffffffffffffffffffffffffffffffff16815260200190815260200160002060009054906101000a900460ff16905092915050565b60008073ffffffffffffffffffffffffffffffffffffffff16600183604051610baf91906116aa565b908152602001604051809103902060010160009054906101000a900473ffffffffffffffffffffffffffffffffffffffff1673ffffffffffffffffffffffffffffffffffffffff1603610c37576040517f08c379a0000000000000000000000000000000000000000000000000000000008152600401610c2e90611b19565b60405180910390fd5b600182604051610c4791906116aa565b908152602001604051809103902060010160149054906101000a900460ff169050919050565b7fe2f4eaae4a9751e85a3e4a7b9587827a877f29914755229b07a7b2da98285f7081565b6000801b81565b7f7c99c4ccc04b45f4167a78ffd832968611bab1239c4b4e2f858140ed8c38e42381565b7f7c99c4ccc04b45f4167a78ffd832968611bab1239c4b4e2f858140ed8c38e423610ce681610e5f565b600073ffffffffffffffffffffffffffffffffffffffff16600183604051610d0e91906116aa565b908152602001604051809103902060010160009054906101000a900473ffffffffffffffffffffffffffffffffffffffff1673ffffffffffffffffffffffffffffffffffffffff1603610d96576040517f08c379a0000000000000000000000000000000000000000000000000000000008152600401610d8d90611b19565b60405180910390fd5b7f893b21d5c8149b81ad673650d7adbd979a3179146f9682bfe1645408dd1543348233604051610dc7929190611a9d565b60405180910390a15050565b610ddc82610349565b610de581610e5f565b610def8383610f6c565b50505050565b60007f01ffc9a7000000000000000000000000000000000000000000000000000000007bffffffffffffffffffffffffffffffffffffffffffffffffffffffff1916827bffffffffffffffffffffffffffffffffffffffffffffffffffffffff1916149050919050565b610e7081610e6b610f64565b61105e565b50565b6000610e7f8383610b1c565b610f5957600160008085815260200190815260200160002060000160008473ffffffffffffffffffffffffffffffffffffffff1673ffffffffffffffffffffffffffffffffffffffff16815260200190815260200160002060006101000a81548160ff021916908315150217905550610ef6610f64565b73ffffffffffffffffffffffffffffffffffffffff168273ffffffffffffffffffffffffffffffffffffffff16847f2f8788117e7eff1d82e926ec794901d17c78024a50270940304540a733656f0d60405160405180910390a460019050610f5e565b600090505b92915050565b600033905090565b6000610f788383610b1c565b1561105357600080600085815260200190815260200160002060000160008473ffffffffffffffffffffffffffffffffffffffff1673ffffffffffffffffffffffffffffffffffffffff16815260200190815260200160002060006101000a81548160ff021916908315150217905550610ff0610f64565b73ffffffffffffffffffffffffffffffffffffffff168273ffffffffffffffffffffffffffffffffffffffff16847ff6391f5c32d9c69d2a47ea670b442974b53935d1edc7fd64eb21e047a839171b60405160405180910390a460019050611058565b600090505b92915050565b6110688282610b1c565b6110ab5780826040517fe2517d3f0000000000000000000000000000000000000000000000000000000081526004016110a2929190611cfa565b60405180910390fd5b5050565b6000604051905090565b600080fd5b600080fd5b60007fffffffff0000000000000000000000000000000000000000000000000000000082169050919050565b6110f8816110c3565b811461110357600080fd5b50565b600081359050611115816110ef565b92915050565b600060208284031215611131576111306110b9565b5b600061113f84828501611106565b91505092915050565b60008115159050919050565b61115d81611148565b82525050565b60006020820190506111786000830184611154565b92915050565b6000819050919050565b6111918161117e565b811461119c57600080fd5b50565b6000813590506111ae81611188565b92915050565b6000602082840312156111ca576111c96110b9565b5b60006111d88482850161119f565b91505092915050565b6111ea8161117e565b82525050565b600060208201905061120560008301846111e1565b92915050565b600073ffffffffffffffffffffffffffffffffffffffff82169050919050565b60006112368261120b565b9050919050565b6112468161122b565b811461125157600080fd5b50565b6000813590506112638161123d565b92915050565b600080604083850312156112805761127f6110b9565b5b600061128e8582860161119f565b925050602061129f85828601611254565b9150509250929050565b600080fd5b600080fd5b6000601f19601f8301169050919050565b7f4e487b7100000000000000000000000000000000000000000000000000000000600052604160045260246000fd5b6112fc826112b3565b810181811067ffffffffffffffff8211171561131b5761131a6112c4565b5b80604052505050565b600061132e6110af565b905061133a82826112f3565b919050565b600067ffffffffffffffff82111561135a576113596112c4565b5b611363826112b3565b9050602081019050919050565b82818337600083830152505050565b600061139261138d8461133f565b611324565b9050828152602081018484840111156113ae576113ad6112ae565b5b6113b9848285611370565b509392505050565b600082601f8301126113d6576113d56112a9565b5b81356113e684826020860161137f565b91505092915050565b600067ffffffffffffffff82111561140a576114096112c4565b5b602082029050602081019050919050565b600080fd5b600061143361142e846113ef565b611324565b905080838252602082019050602084028301858111156114565761145561141b565b5b835b8181101561147f578061146b8882611254565b845260208401935050602081019050611458565b5050509392505050565b600082601f83011261149e5761149d6112a9565b5b81356114ae848260208601611420565b91505092915050565b6000806000606084860312156114d0576114cf6110b9565b5b600084013567ffffffffffffffff8111156114ee576114ed6110be565b5b6114fa868287016113c1565b935050602084013567ffffffffffffffff81111561151b5761151a6110be565b5b61152786828701611489565b925050604084013567ffffffffffffffff811115611548576115476110be565b5b61155486828701611489565b9150509250925092565b600060208284031215611574576115736110b9565b5b600082013567ffffffffffffffff811115611592576115916110be565b5b61159e848285016113c1565b91505092915050565b7f4e487b7100000000000000000000000000000000000000000000000000000000600052602160045260246000fd5b600481106115e7576115e66115a7565b5b50565b60008190506115f8826115d6565b919050565b6000611608826115ea565b9050919050565b611618816115fd565b82525050565b6000602082019050611633600083018461160f565b92915050565b600081519050919050565b600081905092915050565b60005b8381101561166d578082015181840152602081019050611652565b60008484015250505050565b600061168482611639565b61168e8185611644565b935061169e81856020860161164f565b80840191505092915050565b60006116b68284611679565b915081905092915050565b600082825260208201905092915050565b7f536869706d656e7420616c726561647920657869737473000000000000000000600082015250565b60006117086017836116c1565b9150611713826116d2565b602082019050919050565b60006020820190508181036000830152611737816116fb565b9050919050565b7f4e487b7100000000000000000000000000000000000000000000000000000000600052602260045260246000fd5b6000600282049050600182168061178557607f821691505b6020821081036117985761179761173e565b5b50919050565b60008190508160005260206000209050919050565b60006020601f8301049050919050565b600082821b905092915050565b6000600883026118007fffffffffffffffffffffffffffffffffffffffffffffffffffffffffffffffff826117c3565b61180a86836117c3565b95508019841693508086168417925050509392505050565b6000819050919050565b6000819050919050565b600061185161184c61184784611822565b61182c565b611822565b9050919050565b6000819050919050565b61186b83611836565b61187f61187782611858565b8484546117d0565b825550505050565b600090565b611894611887565b61189f818484611862565b505050565b5b818110156118c3576118b860008261188c565b6001810190506118a5565b5050565b601f821115611908576118d98161179e565b6118e2846117b3565b810160208510156118f1578190505b6119056118fd856117b3565b8301826118a4565b50505b505050565b600082821c905092915050565b600061192b6000198460080261190d565b1980831691505092915050565b6000611944838361191a565b9150826002028217905092915050565b61195d82611639565b67ffffffffffffffff811115611976576119756112c4565b5b611980825461176d565b61198b8282856118c7565b600060209050601f8311600181146119be57600084156119ac578287015190505b6119b68582611938565b865550611a1e565b601f1984166119cc8661179e565b60005b828110156119f4578489015182556001820191506020850194506020810190506119cf565b86831015611a115784890151611a0d601f89168261191a565b8355505b6001600288020188555050505b505050505050565b7f4e487b7100000000000000000000000000000000000000000000000000000000600052603260045260246000fd5b6000611a6082611639565b611a6a81856116c1565b9350611a7a81856020860161164f565b611a83816112b3565b840191505092915050565b611a978161122b565b82525050565b60006040820190508181036000830152611ab78185611a55565b9050611ac66020830184611a8e565b9392505050565b7f536869706d656e7420646f6573206e6f74206578697374000000000000000000600082015250565b6000611b036017836116c1565b9150611b0e82611acd565b602082019050919050565b60006020820190508181036000830152611b3281611af6565b9050919050565b7f416c726561647920617070726f76656400000000000000000000000000000000600082015250565b6000611b6f6010836116c1565b9150611b7a82611b39565b602082019050919050565b60006020820190508181036000830152611b9e81611b62565b9050919050565b7f4e487b7100000000000000000000000000000000000000000000000000000000600052601160045260246000fd5b6000611bdf82611822565b91507fffffffffffffffffffffffffffffffffffffffffffffffffffffffffffffffff8203611c1157611c10611ba5565b5b600182019050919050565b7f536869706d656e7420616c72656164792064656c697665726564000000000000600082015250565b6000611c52601a836116c1565b9150611c5d82611c1c565b602082019050919050565b60006020820190508181036000830152611c8181611c45565b9050919050565b6000611c9382611822565b9150611c9e83611822565b9250828201905080821115611cb657611cb5611ba5565b5b92915050565b60006060820190508181036000830152611cd68186611a55565b9050611ce5602083018561160f565b611cf26040830184611a8e565b949350505050565b6000604082019050611d0f6000830185611a8e565b611d1c60208301846111e1565b939250505056fea2646970667358221220ce31a23f66d96ff73f56040c5464e32ba0f4c9813a46a8dc07dfd78b915052c064736f6c634300081c0033",
  "linkReferences": {},
  "deployedLinkReferences": {}
}