{
  "_format": "hh-sol-artifact-1",
  "contractName": "Shipment",
  "sourceName": "contracts/Shipment.sol",
  "abi": [
    {
      "inputs": [
        {
          "internalType": "string",
          "name": "_shipmentId",
          "type": "string"
        },
        {
          "internalType": "string[]",
          "name": "stageNames",
          "type": "string[]"
        },
        {
          "internalType": "string[][]",
          "name": "stageDocs",
          "type": "string[][]"
        },
        {
          "internalType": "address[][]",
          "name": "stageSigners",
          "type": "address[][]"
        },
        {
          "internalType": "address[][]",
          "name": "stageInfoProviders",
          "type": "address[][]"
        }
      ],
      "stateMutability": "nonpayable",
      "type": "constructor"
    },
    {
      "anonymous": false,
      "inputs": [
        {
          "indexed": false,
          "internalType": "address",
          "name": "caller",
          "type": "address"
        },
        {
          "indexed": false,
          "internalType": "address[]",
          "name": "assignedProviders",
          "type": "address[]"
        }
      ],
      "name": "DebugInfoProvider",
      "type": "event"
    },
    {
      "anonymous": false,
      "inputs": [
        {
          "indexed": false,
          "internalType": "string",
          "name": "shipmentId",
          "type": "string"
        },
        {
          "indexed": false,
          "internalType": "uint256",
          "name": "stageIndex",
          "type": "uint256"
        },
        {
          "indexed": false,
          "internalType": "address",
          "name": "uploadedBy",
          "type": "address"
        },
        {
          "indexed": false,
          "internalType": "string",
          "name": "documentName",
          "type": "string"
        }
      ],
      "name": "DocumentUploaded",
      "type": "event"
    },
    {
      "anonymous": false,
      "inputs": [
        {
          "indexed": false,
          "internalType": "string",
          "name": "shipmentId",
          "type": "string"
        },
        {
          "indexed": false,
          "internalType": "address",
          "name": "owner",
          "type": "address"
        }
      ],
      "name": "ShipmentCreated",
      "type": "event"
    },
    {
      "anonymous": false,
      "inputs": [
        {
          "indexed": false,
          "internalType": "string",
          "name": "shipmentId",
          "type": "string"
        }
      ],
      "name": "ShipmentFinalized",
      "type": "event"
    },
    {
      "anonymous": false,
      "inputs": [
        {
          "indexed": false,
          "internalType": "string",
          "name": "shipmentId",
          "type": "string"
        },
        {
          "indexed": false,
          "internalType": "uint256",
          "name": "stageIndex",
          "type": "uint256"
        },
        {
          "indexed": false,
          "internalType": "address",
          "name": "approvedBy",
          "type": "address"
        }
      ],
      "name": "StageApproved",
      "type": "event"
    },
    {
      "inputs": [],
      "name": "INFO_PROVIDER_ROLE",
      "outputs": [
        {
          "internalType": "bytes32",
          "name": "",
          "type": "bytes32"
        }
      ],
      "stateMutability": "view",
      "type": "function"
    },
    {
      "inputs": [],
      "name": "SIGNER_ROLE",
      "outputs": [
        {
          "internalType": "bytes32",
          "name": "",
          "type": "bytes32"
        }
      ],
      "stateMutability": "view",
      "type": "function"
    },
    {
      "inputs": [
        {
          "internalType": "uint256",
          "name": "stageIndex",
          "type": "uint256"
        }
      ],
      "name": "approveStage",
      "outputs": [],
      "stateMutability": "nonpayable",
      "type": "function"
    },
    {
      "inputs": [],
      "name": "currentStage",
      "outputs": [
        {
          "internalType": "uint256",
          "name": "",
          "type": "uint256"
        }
      ],
      "stateMutability": "view",
      "type": "function"
    },
    {
      "inputs": [],
      "name": "getCurrentStage",
      "outputs": [
        {
          "internalType": "uint256",
          "name": "",
          "type": "uint256"
        }
      ],
      "stateMutability": "view",
      "type": "function"
    },
    {
      "inputs": [],
      "name": "getCurrentStageName",
      "outputs": [
        {
          "internalType": "string",
          "name": "",
          "type": "string"
        }
      ],
      "stateMutability": "view",
      "type": "function"
    },
    {
      "inputs": [
        {
          "internalType": "uint256",
          "name": "stageIndex",
          "type": "uint256"
        }
      ],
      "name": "getStageInfoProviders",
      "outputs": [
        {
          "internalType": "address[]",
          "name": "",
          "type": "address[]"
        }
      ],
      "stateMutability": "view",
      "type": "function"
    },
    {
      "inputs": [
        {
          "internalType": "uint256",
          "name": "stageIndex",
          "type": "uint256"
        }
      ],
      "name": "getUploadedDocuments",
      "outputs": [
        {
          "internalType": "string[]",
          "name": "",
          "type": "string[]"
        }
      ],
      "stateMutability": "view",
      "type": "function"
    },
    {
      "inputs": [],
      "name": "isFinalized",
      "outputs": [
        {
          "internalType": "bool",
          "name": "",
          "type": "bool"
        }
      ],
      "stateMutability": "view",
      "type": "function"
    },
    {
      "inputs": [],
      "name": "owner",
      "outputs": [
        {
          "internalType": "address",
          "name": "",
          "type": "address"
        }
      ],
      "stateMutability": "view",
      "type": "function"
    },
    {
      "inputs": [],
      "name": "shipmentId",
      "outputs": [
        {
          "internalType": "string",
          "name": "",
          "type": "string"
        }
      ],
      "stateMutability": "view",
      "type": "function"
    },
    {
      "inputs": [
        {
          "internalType": "uint256",
          "name": "",
          "type": "uint256"
        }
      ],
      "name": "stages",
      "outputs": [
        {
          "internalType": "string",
          "name": "name",
          "type": "string"
        },
        {
          "internalType": "uint256",
          "name": "approvals",
          "type": "uint256"
        },
        {
          "internalType": "bool",
          "name": "allDocsUploaded",
          "type": "bool"
        }
      ],
      "stateMutability": "view",
      "type": "function"
    },
    {
      "inputs": [],
      "name": "totalStages",
      "outputs": [
        {
          "internalType": "uint256",
          "name": "",
          "type": "uint256"
        }
      ],
      "stateMutability": "view",
      "type": "function"
    },
    {
      "inputs": [
        {
          "internalType": "uint256",
          "name": "stageIndex",
          "type": "uint256"
        },
        {
          "internalType": "string",
          "name": "documentName",
          "type": "string"
        }
      ],
      "name": "uploadDocument",
      "outputs": [],
      "stateMutability": "nonpayable",
      "type": "function"
    }
  ],
  "bytecode": "0x60806040523480156200001157600080fd5b5060405162002fdd38038062002fdd8339818101604052810190620000379190620009ea565b60008451116200007e576040517f08c379a0000000000000000000000000000000000000000000000000000000008152600401620000759062000b6e565b60405180910390fd5b84600090816200008f919062000ddb565b5033600160006101000a81548173ffffffffffffffffffffffffffffffffffffffff021916908373ffffffffffffffffffffffffffffffffffffffff160217905550600060028190555083516004819055506000600560006101000a81548160ff02191690831515021790555060005b84518110156200026f578481815181106200011f576200011e62000ec2565b5b60200260200101516003600083815260200190815260200160002060000190816200014b919062000ddb565b5083818151811062000162576200016162000ec2565b5b602002602001015160036000838152602001908152602001600020600101908051906020019062000195929190620002b6565b50828181518110620001ac57620001ab62000ec2565b5b6020026020010151600360008381526020019081526020016000206002019080519060200190620001df92919062000316565b50818181518110620001f657620001f562000ec2565b5b60200260200101516003600083815260200190815260200160002060030190805190602001906200022992919062000316565b5060006003600083815260200190815260200160002060070160006101000a81548160ff0219169083151502179055508080620002669062000f20565b915050620000ff565b507f45d116fa2d81f0784fa8c724f0e51976f4fe3e15db525481c38f078ebf5723988533604051620002a392919062000fbf565b60405180910390a1505050505062000ff3565b82805482825590600052602060002090810192821562000303579160200282015b8281111562000302578251829081620002f1919062000ddb565b5091602001919060010190620002d7565b5b509050620003129190620003a5565b5090565b82805482825590600052602060002090810192821562000392579160200282015b82811115620003915782518260006101000a81548173ffffffffffffffffffffffffffffffffffffffff021916908373ffffffffffffffffffffffffffffffffffffffff1602179055509160200191906001019062000337565b5b509050620003a19190620003cd565b5090565b5b80821115620003c95760008181620003bf9190620003ec565b50600101620003a6565b5090565b5b80821115620003e8576000816000905550600101620003ce565b5090565b508054620003fa9062000bca565b6000825580601f106200040e57506200042f565b601f0160209004906000526020600020908101906200042e9190620003cd565b5b50565b6000604051905090565b600080fd5b600080fd5b600080fd5b600080fd5b6000601f19601f8301169050919050565b7f4e487b7100000000000000000000000000000000000000000000000000000000600052604160045260246000fd5b6200049b8262000450565b810181811067ffffffffffffffff82111715620004bd57620004bc62000461565b5b80604052505050565b6000620004d262000432565b9050620004e0828262000490565b919050565b600067ffffffffffffffff82111562000503576200050262000461565b5b6200050e8262000450565b9050602081019050919050565b60005b838110156200053b5780820151818401526020810190506200051e565b60008484015250505050565b60006200055e6200055884620004e5565b620004c6565b9050828152602081018484840111156200057d576200057c6200044b565b5b6200058a8482856200051b565b509392505050565b600082601f830112620005aa57620005a962000446565b5b8151620005bc84826020860162000547565b91505092915050565b600067ffffffffffffffff821115620005e357620005e262000461565b5b602082029050602081019050919050565b600080fd5b6000620006106200060a84620005c5565b620004c6565b90508083825260208201905060208402830185811115620006365762000635620005f4565b5b835b818110156200068457805167ffffffffffffffff8111156200065f576200065e62000446565b5b8086016200066e898262000592565b8552602085019450505060208101905062000638565b5050509392505050565b600082601f830112620006a657620006a562000446565b5b8151620006b8848260208601620005f9565b91505092915050565b600067ffffffffffffffff821115620006df57620006de62000461565b5b602082029050602081019050919050565b6000620007076200070184620006c1565b620004c6565b905080838252602082019050602084028301858111156200072d576200072c620005f4565b5b835b818110156200077b57805167ffffffffffffffff81111562000756576200075562000446565b5b8086016200076589826200068e565b855260208501945050506020810190506200072f565b5050509392505050565b600082601f8301126200079d576200079c62000446565b5b8151620007af848260208601620006f0565b91505092915050565b600067ffffffffffffffff821115620007d657620007d562000461565b5b602082029050602081019050919050565b600067ffffffffffffffff82111562000805576200080462000461565b5b602082029050602081019050919050565b600073ffffffffffffffffffffffffffffffffffffffff82169050919050565b6000620008438262000816565b9050919050565b620008558162000836565b81146200086157600080fd5b50565b60008151905062000875816200084a565b92915050565b6000620008926200088c84620007e7565b620004c6565b90508083825260208201905060208402830185811115620008b857620008b7620005f4565b5b835b81811015620008e55780620008d0888262000864565b845260208401935050602081019050620008ba565b5050509392505050565b600082601f83011262000907576200090662000446565b5b8151620009198482602086016200087b565b91505092915050565b6000620009396200093384620007b8565b620004c6565b905080838252602082019050602084028301858111156200095f576200095e620005f4565b5b835b81811015620009ad57805167ffffffffffffffff81111562000988576200098762000446565b5b808601620009978982620008ef565b8552602085019450505060208101905062000961565b5050509392505050565b600082601f830112620009cf57620009ce62000446565b5b8151620009e184826020860162000922565b91505092915050565b600080600080600060a0868803121562000a095762000a086200043c565b5b600086015167ffffffffffffffff81111562000a2a5762000a2962000441565b5b62000a388882890162000592565b955050602086015167ffffffffffffffff81111562000a5c5762000a5b62000441565b5b62000a6a888289016200068e565b945050604086015167ffffffffffffffff81111562000a8e5762000a8d62000441565b5b62000a9c8882890162000785565b935050606086015167ffffffffffffffff81111562000ac05762000abf62000441565b5b62000ace88828901620009b7565b925050608086015167ffffffffffffffff81111562000af25762000af162000441565b5b62000b0088828901620009b7565b9150509295509295909350565b600082825260208201905092915050565b7f4d7573742068617665206174206c65617374206f6e6520737461676500000000600082015250565b600062000b56601c8362000b0d565b915062000b638262000b1e565b602082019050919050565b6000602082019050818103600083015262000b898162000b47565b9050919050565b600081519050919050565b7f4e487b7100000000000000000000000000000000000000000000000000000000600052602260045260246000fd5b6000600282049050600182168062000be357607f821691505b60208210810362000bf95762000bf862000b9b565b5b50919050565b60008190508160005260206000209050919050565b60006020601f8301049050919050565b600082821b905092915050565b60006008830262000c637fffffffffffffffffffffffffffffffffffffffffffffffffffffffffffffffff8262000c24565b62000c6f868362000c24565b95508019841693508086168417925050509392505050565b6000819050919050565b6000819050919050565b600062000cbc62000cb662000cb08462000c87565b62000c91565b62000c87565b9050919050565b6000819050919050565b62000cd88362000c9b565b62000cf062000ce78262000cc3565b84845462000c31565b825550505050565b600090565b62000d0762000cf8565b62000d1481848462000ccd565b505050565b5b8181101562000d3c5762000d3060008262000cfd565b60018101905062000d1a565b5050565b601f82111562000d8b5762000d558162000bff565b62000d608462000c14565b8101602085101562000d70578190505b62000d8862000d7f8562000c14565b83018262000d19565b50505b505050565b600082821c905092915050565b600062000db06000198460080262000d90565b1980831691505092915050565b600062000dcb838362000d9d565b9150826002028217905092915050565b62000de68262000b90565b67ffffffffffffffff81111562000e025762000e0162000461565b5b62000e0e825462000bca565b62000e1b82828562000d40565b600060209050601f83116001811462000e53576000841562000e3e578287015190505b62000e4a858262000dbd565b86555062000eba565b601f19841662000e638662000bff565b60005b8281101562000e8d5784890151825560018201915060208501945060208101905062000e66565b8683101562000ead578489015162000ea9601f89168262000d9d565b8355505b6001600288020188555050505b505050505050565b7f4e487b7100000000000000000000000000000000000000000000000000000000600052603260045260246000fd5b7f4e487b7100000000000000000000000000000000000000000000000000000000600052601160045260246000fd5b600062000f2d8262000c87565b91507fffffffffffffffffffffffffffffffffffffffffffffffffffffffffffffffff820362000f625762000f6162000ef1565b5b600182019050919050565b600062000f7a8262000b90565b62000f86818562000b0d565b935062000f988185602086016200051b565b62000fa38162000450565b840191505092915050565b62000fb98162000836565b82525050565b6000604082019050818103600083015262000fdb818562000f6d565b905062000fec602083018462000fae565b9392505050565b611fda80620010036000396000f3fe608060405234801561001057600080fd5b50600436106100ea5760003560e01c80638da5cb5b1161008c578063ab54aef011610066578063ab54aef014610251578063b65174561461026f578063eedbe31d1461028b578063f86a3529146102a9576100ea565b80638da5cb5b146101f75780639086790a14610215578063a1ebf35d14610233576100ea565b80635bf5d54c116100c85780635bf5d54c1461016d57806379cda7721461018b578063845ddcb2146101a75780638d4e4083146101d9576100ea565b80630b96e04f146100ef578063106e30d81461011f578063153fafc91461013d575b600080fd5b61010960048036038101906101049190610f54565b6102c7565b6040516101169190611071565b60405180910390f35b61012761036b565b6040516101349190611123565b60405180910390f35b61015760048036038101906101529190610f54565b610413565b6040516101649190611251565b60405180910390f35b610175610546565b6040516101829190611282565b60405180910390f35b6101a560048036038101906101a091906113d2565b61054c565b005b6101c160048036038101906101bc9190610f54565b6108f8565b6040516101d093929190611449565b60405180910390f35b6101e16109b7565b6040516101ee9190611487565b60405180910390f35b6101ff6109ca565b60405161020c91906114b1565b60405180910390f35b61021d6109f0565b60405161022a9190611123565b60405180910390f35b61023b610a7e565b60405161024891906114e5565b60405180910390f35b610259610aa2565b60405161026691906114e5565b60405180910390f35b61028960048036038101906102849190610f54565b610ac6565b005b610293610efa565b6040516102a09190611282565b60405180910390f35b6102b1610f04565b6040516102be9190611282565b60405180910390f35b60606003600083815260200190815260200160002060030180548060200260200160405190810160405280929190818152602001828054801561035f57602002820191906000526020600020905b8160009054906101000a900473ffffffffffffffffffffffffffffffffffffffff1673ffffffffffffffffffffffffffffffffffffffff1681526020019060010190808311610315575b50505050509050919050565b606060036000600254815260200190815260200160002060000180546103909061152f565b80601f01602080910402602001604051908101604052809291908181526020018280546103bc9061152f565b80156104095780601f106103de57610100808354040283529160200191610409565b820191906000526020600020905b8154815290600101906020018083116103ec57829003601f168201915b5050505050905090565b60606004548210610459576040517f08c379a0000000000000000000000000000000000000000000000000000000008152600401610450906115ac565b60405180910390fd5b60036000838152602001908152602001600020600601805480602002602001604051908101604052809291908181526020016000905b8282101561053b5783829060005260206000200180546104ae9061152f565b80601f01602080910402602001604051908101604052809291908181526020018280546104da9061152f565b80156105275780601f106104fc57610100808354040283529160200191610527565b820191906000526020600020905b81548152906001019060200180831161050a57829003601f168201915b50505050508152602001906001019061048f565b505050509050919050565b60025481565b600560009054906101000a900460ff161561059c576040517f08c379a000000000000000000000000000000000000000000000000000000000815260040161059390611618565b60405180910390fd5b60045482106105e0576040517f08c379a00000000000000000000000000000000000000000000000000000000081526004016105d7906115ac565b60405180910390fd5b7f03220c9f5d249c5b49297810cf9dc6093c909fd77ddc5dbd82848074551f784e3360036000858152602001908152602001600020600301604051610626929190611724565b60405180910390a16000805b60036000858152602001908152602001600020600301805490508110156106f4573373ffffffffffffffffffffffffffffffffffffffff1660036000868152602001908152602001600020600301828154811061069257610691611754565b5b9060005260206000200160009054906101000a900473ffffffffffffffffffffffffffffffffffffffff1673ffffffffffffffffffffffffffffffffffffffff16036106e157600191506106f4565b80806106ec906117b2565b915050610632565b5080610735576040517f08c379a000000000000000000000000000000000000000000000000000000000815260040161072c90611846565b60405180910390fd5b80610775576040517f08c379a000000000000000000000000000000000000000000000000000000000815260040161076c90611846565b60405180910390fd5b60005b600360008581526020019081526020016000206006018054905081101561086b57826040516020016107aa91906118a2565b604051602081830303815290604052805190602001206003600086815260200190815260200160002060060182815481106107e8576107e7611754565b5b906000526020600020016040516020016108029190611951565b6040516020818303038152906040528051906020012003610858576040517f08c379a000000000000000000000000000000000000000000000000000000000815260040161084f906119b4565b60405180910390fd5b8080610863906117b2565b915050610778565b5060036000848152602001908152602001600020600601829080600181540180825580915050600190039060005260206000200160009091909190915090816108b49190611b6b565b507f326a243c252a723eb159ee92a6ac17f5562cea5ff61ea6ab0c6ae2853c5cb00460008433856040516108eb9493929190611cc1565b60405180910390a1505050565b600360205280600052604060002060009150905080600001805461091b9061152f565b80601f01602080910402602001604051908101604052809291908181526020018280546109479061152f565b80156109945780601f1061096957610100808354040283529160200191610994565b820191906000526020600020905b81548152906001019060200180831161097757829003601f168201915b5050505050908060050154908060070160009054906101000a900460ff16905083565b600560009054906101000a900460ff1681565b600160009054906101000a900473ffffffffffffffffffffffffffffffffffffffff1681565b600080546109fd9061152f565b80601f0160208091040260200160405190810160405280929190818152602001828054610a299061152f565b8015610a765780601f10610a4b57610100808354040283529160200191610a76565b820191906000526020600020905b815481529060010190602001808311610a5957829003601f168201915b505050505081565b7fe2f4eaae4a9751e85a3e4a7b9587827a877f29914755229b07a7b2da98285f7081565b7f7c99c4ccc04b45f4167a78ffd832968611bab1239c4b4e2f858140ed8c38e42381565b600560009054906101000a900460ff1615610b16576040517f08c379a0000000000000000000000000000000000000000000000000000000008152600401610b0d90611618565b60405180910390fd5b6002548114610b5a576040517f08c379a0000000000000000000000000000000000000000000000000000000008152600401610b5190611d86565b60405180910390fd5b6003600082815260200190815260200160002060070160009054906101000a900460ff16610bbd576040517f08c379a0000000000000000000000000000000000000000000000000000000008152600401610bb490611e18565b60405180910390fd5b6000805b6003600084815260200190815260200160002060020180549050811015610c83573373ffffffffffffffffffffffffffffffffffffffff16600360008581526020019081526020016000206002018281548110610c2157610c20611754565b5b9060005260206000200160009054906101000a900473ffffffffffffffffffffffffffffffffffffffff1673ffffffffffffffffffffffffffffffffffffffff1603610c705760019150610c83565b8080610c7b906117b2565b915050610bc1565b5080610cc4576040517f08c379a0000000000000000000000000000000000000000000000000000000008152600401610cbb90611e84565b60405180910390fd5b6003600083815260200190815260200160002060040160003373ffffffffffffffffffffffffffffffffffffffff1673ffffffffffffffffffffffffffffffffffffffff16815260200190815260200160002060009054906101000a900460ff1615610d65576040517f08c379a0000000000000000000000000000000000000000000000000000000008152600401610d5c90611ef0565b60405180910390fd5b60016003600084815260200190815260200160002060040160003373ffffffffffffffffffffffffffffffffffffffff1673ffffffffffffffffffffffffffffffffffffffff16815260200190815260200160002060006101000a81548160ff021916908315150217905550600360008381526020019081526020016000206005016000815480929190610df8906117b2565b91905055507f32ee4d2f1c41f6034bf64773ce40696346c018c075da9ff5c4e8e3abdee6ae3860008333604051610e3193929190611f10565b60405180910390a16003600083815260200190815260200160002060020180549050600360008481526020019081526020016000206005015403610ef6576001600454610e7e9190611f4e565b8203610edc576001600560006101000a81548160ff0219169083151502179055507f6a712e5a64c1da0d2872b9d8e853ea960a2e1cf51298fd7ec52cfdbc782df4b56000604051610ecf9190611f82565b60405180910390a1610ef5565b60026000815480929190610eef906117b2565b91905055505b5b5050565b6000600254905090565b60045481565b6000604051905090565b600080fd5b600080fd5b6000819050919050565b610f3181610f1e565b8114610f3c57600080fd5b50565b600081359050610f4e81610f28565b92915050565b600060208284031215610f6a57610f69610f14565b5b6000610f7884828501610f3f565b91505092915050565b600081519050919050565b600082825260208201905092915050565b6000819050602082019050919050565b600073ffffffffffffffffffffffffffffffffffffffff82169050919050565b6000610fd882610fad565b9050919050565b610fe881610fcd565b82525050565b6000610ffa8383610fdf565b60208301905092915050565b6000602082019050919050565b600061101e82610f81565b6110288185610f8c565b935061103383610f9d565b8060005b8381101561106457815161104b8882610fee565b975061105683611006565b925050600181019050611037565b5085935050505092915050565b6000602082019050818103600083015261108b8184611013565b905092915050565b600081519050919050565b600082825260208201905092915050565b60005b838110156110cd5780820151818401526020810190506110b2565b60008484015250505050565b6000601f19601f8301169050919050565b60006110f582611093565b6110ff818561109e565b935061110f8185602086016110af565b611118816110d9565b840191505092915050565b6000602082019050818103600083015261113d81846110ea565b905092915050565b600081519050919050565b600082825260208201905092915050565b6000819050602082019050919050565b600082825260208201905092915050565b600061118d82611093565b6111978185611171565b93506111a78185602086016110af565b6111b0816110d9565b840191505092915050565b60006111c78383611182565b905092915050565b6000602082019050919050565b60006111e782611145565b6111f18185611150565b93508360208202850161120385611161565b8060005b8581101561123f578484038952815161122085826111bb565b945061122b836111cf565b925060208a01995050600181019050611207565b50829750879550505050505092915050565b6000602082019050818103600083015261126b81846111dc565b905092915050565b61127c81610f1e565b82525050565b60006020820190506112976000830184611273565b92915050565b600080fd5b600080fd5b7f4e487b7100000000000000000000000000000000000000000000000000000000600052604160045260246000fd5b6112df826110d9565b810181811067ffffffffffffffff821117156112fe576112fd6112a7565b5b80604052505050565b6000611311610f0a565b905061131d82826112d6565b919050565b600067ffffffffffffffff82111561133d5761133c6112a7565b5b611346826110d9565b9050602081019050919050565b82818337600083830152505050565b600061137561137084611322565b611307565b905082815260208101848484011115611391576113906112a2565b5b61139c848285611353565b509392505050565b600082601f8301126113b9576113b861129d565b5b81356113c9848260208601611362565b91505092915050565b600080604083850312156113e9576113e8610f14565b5b60006113f785828601610f3f565b925050602083013567ffffffffffffffff81111561141857611417610f19565b5b611424858286016113a4565b9150509250929050565b60008115159050919050565b6114438161142e565b82525050565b6000606082019050818103600083015261146381866110ea565b90506114726020830185611273565b61147f604083018461143a565b949350505050565b600060208201905061149c600083018461143a565b92915050565b6114ab81610fcd565b82525050565b60006020820190506114c660008301846114a2565b92915050565b6000819050919050565b6114df816114cc565b82525050565b60006020820190506114fa60008301846114d6565b92915050565b7f4e487b7100000000000000000000000000000000000000000000000000000000600052602260045260246000fd5b6000600282049050600182168061154757607f821691505b60208210810361155a57611559611500565b5b50919050565b7f496e76616c696420737461676520696e64657800000000000000000000000000600082015250565b600061159660138361109e565b91506115a182611560565b602082019050919050565b600060208201905081810360008301526115c581611589565b9050919050565b7f536869706d656e742069732066696e616c697a65640000000000000000000000600082015250565b600061160260158361109e565b915061160d826115cc565b602082019050919050565b60006020820190508181036000830152611631816115f5565b9050919050565b600081549050919050565b60008190508160005260206000209050919050565b60008160001c9050919050565b600073ffffffffffffffffffffffffffffffffffffffff82169050919050565b600061169861169383611658565b611665565b9050919050565b60006116ab8254611685565b9050919050565b6000600182019050919050565b60006116ca82611638565b6116d48185610f8c565b93506116df83611643565b8060005b83811015611717576116f48261169f565b6116fe8882610fee565b9750611709836116b2565b9250506001810190506116e3565b5085935050505092915050565b600060408201905061173960008301856114a2565b818103602083015261174b81846116bf565b90509392505050565b7f4e487b7100000000000000000000000000000000000000000000000000000000600052603260045260246000fd5b7f4e487b7100000000000000000000000000000000000000000000000000000000600052601160045260246000fd5b60006117bd82610f1e565b91507fffffffffffffffffffffffffffffffffffffffffffffffffffffffffffffffff82036117ef576117ee611783565b5b600182019050919050565b7f4e6f742061737369676e656420617320616e20696e666f2070726f7669646572600082015250565b600061183060208361109e565b915061183b826117fa565b602082019050919050565b6000602082019050818103600083015261185f81611823565b9050919050565b600081905092915050565b600061187c82611093565b6118868185611866565b93506118968185602086016110af565b80840191505092915050565b60006118ae8284611871565b915081905092915050565b60008190508160005260206000209050919050565b600081546118db8161152f565b6118e58186611866565b94506001821660008114611900576001811461191557611948565b60ff1983168652811515820286019350611948565b61191e856118b9565b60005b8381101561194057815481890152600182019150602081019050611921565b838801955050505b50505092915050565b600061195d82846118ce565b915081905092915050565b7f446f63756d656e7420616c72656164792075706c6f6164656400000000000000600082015250565b600061199e60198361109e565b91506119a982611968565b602082019050919050565b600060208201905081810360008301526119cd81611991565b9050919050565b60006020601f8301049050919050565b600082821b905092915050565b600060088302611a217fffffffffffffffffffffffffffffffffffffffffffffffffffffffffffffffff826119e4565b611a2b86836119e4565b95508019841693508086168417925050509392505050565b6000819050919050565b6000611a68611a63611a5e84610f1e565b611a43565b610f1e565b9050919050565b6000819050919050565b611a8283611a4d565b611a96611a8e82611a6f565b8484546119f1565b825550505050565b600090565b611aab611a9e565b611ab6818484611a79565b505050565b5b81811015611ada57611acf600082611aa3565b600181019050611abc565b5050565b601f821115611b1f57611af0816118b9565b611af9846119d4565b81016020851015611b08578190505b611b1c611b14856119d4565b830182611abb565b50505b505050565b600082821c905092915050565b6000611b4260001984600802611b24565b1980831691505092915050565b6000611b5b8383611b31565b9150826002028217905092915050565b611b7482611093565b67ffffffffffffffff811115611b8d57611b8c6112a7565b5b611b97825461152f565b611ba2828285611ade565b600060209050601f831160018114611bd55760008415611bc3578287015190505b611bcd8582611b4f565b865550611c35565b601f198416611be3866118b9565b60005b82811015611c0b57848901518255600182019150602085019450602081019050611be6565b86831015611c285784890151611c24601f891682611b31565b8355505b6001600288020188555050505b505050505050565b60008154611c4a8161152f565b611c54818661109e565b94506001821660008114611c6f5760018114611c8557611cb8565b60ff198316865281151560200286019350611cb8565b611c8e856118b9565b60005b83811015611cb057815481890152600182019150602081019050611c91565b808801955050505b50505092915050565b60006080820190508181036000830152611cdb8187611c3d565b9050611cea6020830186611273565b611cf760408301856114a2565b8181036060830152611d0981846110ea565b905095945050505050565b7f43616e206f6e6c7920617070726f7665207468652063757272656e742073746160008201527f6765000000000000000000000000000000000000000000000000000000000000602082015250565b6000611d7060228361109e565b9150611d7b82611d14565b604082019050919050565b60006020820190508181036000830152611d9f81611d63565b9050919050565b7f416c6c20726571756972656420646f63756d656e7473206d757374206265207560008201527f706c6f61646564206265666f726520617070726f76616c000000000000000000602082015250565b6000611e0260378361109e565b9150611e0d82611da6565b604082019050919050565b60006020820190508181036000830152611e3181611df5565b9050919050565b7f4e6f742061737369676e65642061732061207369676e65720000000000000000600082015250565b6000611e6e60188361109e565b9150611e7982611e38565b602082019050919050565b60006020820190508181036000830152611e9d81611e61565b9050919050565b7f416c726561647920617070726f76656420746869732073746167650000000000600082015250565b6000611eda601b8361109e565b9150611ee582611ea4565b602082019050919050565b60006020820190508181036000830152611f0981611ecd565b9050919050565b60006060820190508181036000830152611f2a8186611c3d565b9050611f396020830185611273565b611f4660408301846114a2565b949350505050565b6000611f5982610f1e565b9150611f6483610f1e565b9250828203905081811115611f7c57611f7b611783565b5b92915050565b60006020820190508181036000830152611f9c8184611c3d565b90509291505056fea2646970667358221220d19a07f17877fe3b0166ff2bf43b33894a710ab25a3469205c1c63a00dda285d64736f6c63430008140033",
  "linkReferences": {},
  "deployedLinkReferences": {}
}